S0120000547572626F537469636B2E7372656308
S11300000C948C000C94C4000C94A9000C94A900CA
S11300100C94A9000C94A9000C94A9000C94A900B8
S11300200C94A9000C94A9000C94A9000C94A900A8
S11300300C94A9000C94A9000C94A9000C94A90098
S11300400C94A9000C94A9000C94A9000C94A90088
S11300500C94A9000C94A9000C94A9000C94A90078
S11300600C94A9000C94A90005010904A10109013B
S1130070A1000930093109321581257F75089503DE
S11300808102C00509190129061500250195067587
S1130090018102950275018103C009022200010158
S11300A0008032090400000103000000092101015D
S11300B000012232000705810308003212011001F9
S11300C000000008C016DC05000101020001200345
S11300D054007500720062006F00730074006900C0
S11300E063006B0020003500300030003000260330
S11300F06C00750072006A007500730040006B00AC
S11301006F0061006C006900740069006F002E00CC
S1130110660069000403090411241FBECFEFD8E070
S1130120DEBFCDBF11E0A0E0B1E0E0EAFCE002C038
S113013005900D92A230B107D9F721E0A2E0B1E019
S113014001C01D92AE33B207E1F70E94D7020C94AE
S11301504E060C940000A82FB92F80E090E041E0F7
S113016050EA609530E009C02D91822797958795D4
S113017010F084279527305EC8F36F5FA8F30895C5
S1130180EADF8D939D930895CF93CFB7CF93DF93F9
S1130190C3954B9BE9F74B9B0BC04B9B09C04B9BF7
S11301A007C04B9B05C04B9B03C04B9B01C08BC03E
S11301B06F93C0912101DD27C85DDE4F2F9365E564
S11301C04B9B03C02F916F91E6CF0F931F934F93D7
S11301D020E040E15F9309B10C7003FB27F93F93E2
S11301E050E03BE039C01C7040642F77012F5F5F03
S11301F01EC0406819B11C702F7752501FC0406454
S113020009B12F770C70D1F15F5F00C023C0406249
S113021019B12F771C7091F15F5F00C025C00C707D
S11302201027515012F45D5F0000115027952C3FA8
S113023019B1C8F61C700127015027952C3FC8F648
S11302404227499309B10C7010274F731150279519
S11302502C3FA8F64695469519B11C7079F00127F4
S1130260015027952C3F98F66B5A60F3315009B131
S1130270B0F600C011E01CBB002719C03B503195FB
S1130280C31BD04011E01CBB0881033C09F10B34B3
S1130290F9F020911F011981110F1213EDCF4A813A
S11302A0441F093651F10D3211F0013E29F7009334
S11302B026013F915F914F911F910F912F916F9163
S11302C0CCB3C0FD65CFDF91CF91CFBFCF9118954F
S11302D020912601222369F310912401112391F521
S11302E0343092F1309324012093200110912101A4
S11302F03BE0311B3093210127C0009124010130E0
S11303000CF50AE54F7049F43091010134FD1DC02C
S113031000930101C8E0D1E01CC03091130134FD09
S113032014C000931301C4E1D1E013C0052710E009
S113033000C000000BB91AC0052710E0221F1DC021
S113034010E021C04AE502C032ED432FC4E1D0E001
S113035032E01AB11C605B9A0BB11AB95CE020E878
S113036065E320FF05270BB9279517951C3FF0F689
S11303706695B8F7B1F720FF05270BB927951795B0
S11303801C3FD0F62795179517FF052700001C3F43
S11303900BB9B0F629913A9519F7037F109125010D
S11303A0110FC651D0400BB911F010931F0111E089
S11303B01CBB08601AB1137F402F437F54E05A9549
S11303C0F1F70BB91AB94BB974CFFC01908190764F
S11303D09032E1F48181813041F483E091E09093A3
S11303E023018093220184E00895823041F487E060
S11303F091E0909323018093220181E008958A3053
S113040039F483818093070180E0089580E00895A2
S113041080E00895ECE7F0E080818064808380814F
S11304208F758083EAE7F0E080818768808317B85E
S113043087E088B984B1807E84B985B18F6185B93C
S113044057985F9A0895CF92DF92EF92FF92CF93DD
S1130450DF939B01BA016C507E4F6817790728F42B
S1130460685E7F4F86179707A0F19250841B950B07
S1130470181619061CF4EC012C9702C0EC012C96FA
S1130480B90180E090E00E9406059B01AC0160E0A8
S113049070E08EE793E40E945E046B017C01BE0170
S11304A0DD0F880B990B0E9408059B01AC01C70165
S11304B0B6010E9494050E9401060E94D004262FD2
S11304C0372F203831053CF421383F4F34F0862F44
S11304D005C080E003C08FE701C081E8DF91CF91C0
S11304E0FF90EF90DF90CF900895CF93DF93ECE7E8
S11304F0F0E08081807F8083EAE7F0E0808180649F
S11305008083808184FFFDCFCAE7D0E08881806149
S11305108883809178009091790049E150E06CEDF6
S113052070E00E94230280930401ECE7F0E08081F4
S113053081608083888180648883EAE7F0E0808139
S113054084FFFDCFCAE7D0E08881806188838091F1
S113055078009091790047E150E062ED70E00E94EC
S11305602302819580930301ECE7F0E08081807F92
S113057082608083888180648883EAE7F0E08081F8
S113058084FFFDCFEAE7F0E0808180618083809181
S11305907800909179004FE150E066EE70E00E949F
S11305A02302819580930501DF91CF9108950E94E4
S11305B00A02F8940E94510454985C9885E690E0ED
S11305C0EFE1FEE43197F1F700C000000197C1F7B5
S11305D0549A5C9A7894C3E0D1E003E111E00E945C
S11305E0750223B199B19078892F90E095958795FC
S11305F095958795922F9F71892B80958B830E9467
S11306002D03F801808184FFEACF64E0CE010E94CB
S11306100A03E5CFCF93C62F2091130124FF07C00F
S1130620E3E1F1E0318128E82327218303C02AE5AF
S113063020931301E82FF92FA5E1B1E08C2F9191BC
S11306409D938150E1F76C2F85E191E00E94C000F9
S1130650CC5FC0931301CF910895CF93DF93809122
S1130660240183500AF4B5C0909120019D3209F011
S1130670AEC0883009F0ABC080912101CCE0D0E05D
S1130680C81BD109C85DDE4F83EC809308018AE55D
S113069080930101109202018881807621F0CE01BD
S11306A00E94E5018BC09A81109211018981811108
S11306B006C01092120121E131E082E07BC0853056
S11306C031F49093250121E131E080E073C086305C
S11306D009F050C08B81813041F48CEB90E0909311
S11306E023018093220182E141C0823041F48AE9EE
S11306F090E0909323018093220182E237C08330FB
S1130700F1F4911108C084E191E090932301809366
S1130710220184E02BC0913041F48EEE90E090935E
S113072023018093220186E221C09230E1F48EEC11
S113073090E0909323018093220180E217C08132DC
S113074041F48CEA90E0909323018093220189E0A4
S11307500DC0823251F488E690E090932301809397
S1130760220182E303C080E001C080E090E4909322
S1130770020124C0883099F0893031F49093270124
S113078021E131E080E016C08A3069F08B3079F4E1
S11307908BE48093140121E131E080E00BC027E277
S11307A031E081E007C021E131E081E003C021E1D3
S11307B031E080E030932301209322019F81911145
S11307C004C09E81981708F4892F80930001109229
S11307D024018091010184FF4CC0809100018F3F6E
S11307E009F447C0C82F893008F0C8E08C1B8093F7
S11307F00001E8E0F1E0908188E889278083CC2338
S113080009F445C020912201309123018091020115
S113081086FF10C0A9E0B1E0F9018C2F94919D935B
S113082031968150D9F72F5F3F4F8FEF8C0F280FF0
S1130830311D0EC0A9E0B1E0F9018C2F91919D9377
S11308408150E1F72F5F3F4F8FEF8C0F280F311D41
S113085030932301209322016C2F89E091E00E94C0
S1130860C000CC5FCC3018F48FEF80930001C093AC
S1130870010189B18C7091F493E189B18C7071F4A8
S11308809150D9F71092250110921F0107C06C2FC7
S113089089E091E00E94C000CC5FE6CFDF91CF9168
S11308A00895E9E6F0E0808182608083E89AE3E1DC
S11308B0F1E08BE481838AE5808308950E947204C9
S11308C00C945A050E94530558F00E944C0540F0C0
S11308D029F45F3F29F00C94430551110C948E05C3
S11308E00C9449050E946B0568F39923B1F35523D1
S11308F091F3951B550BBB27AA276217730784072F
S113090038F09F5F5F4F220F331F441FAA1FA9F3C4
S113091035D00E2E3AF0E0E832D091505040E695B2
S1130920001CCAF72BD0FE2F29D0660F771F881F13
S1130930BB1F261737074807AB07B0E809F0BB0B06
S1130940802DBF01FF2793585F4F3AF09E3F51051A
S113095078F00C9443050C948E055F3FE4F3983EC5
S1130960D4F3869577956795B795F7959F5FC9F703
S1130970880F911D9695879597F90895E1E0660F84
S1130980771F881FBB1F621773078407BA0720F0FD
S1130990621B730B840BBA0BEE1F88F7E095089566
S11309A00E94D7046894B1110C948E0508950E9496
S11309B0730588F09F5798F0B92F9927B751B0F075
S11309C0E1F0660F771F881F991F1AF0BA95C9F7CF
S11309D014C0B13091F00E948D05B1E008950C94DB
S11309E08D05672F782F8827B85F39F0B93FCCF38E
S11309F0869577956795B395D9F73EF4909580954C
S1130A00709561957F4F8F4F9F4F0895E89409C06B
S1130A1097FB3EF490958095709561957F4F8F4F2D
S1130A209F4F9923A9F0F92F96E9BB279395F69543
S1130A30879577956795B795F111F8CFFAF4BB0FC1
S1130A4011F460FF1BC06F5F7F4F8F4F9F4F16C025
S1130A50882311F096E911C0772321F09EE8872FAF
S1130A60762F05C0662371F096E8862F70E060E06B
S1130A702AF09A95660F771F881FDAF7880F9695E4
S1130A80879597F9089597F99F6780E870E060E08B
S1130A9008959FEF80EC089500240A941616170613
S1130AA018060906089500240A941216130614065B
S1130AB005060895092E0394000C11F4882352F0BE
S1130AC0BB0F40F4BF2B11F460FF04C06F5F7F4F76
S1130AD08F4F9F4F089557FD9058440F551F59F05D
S1130AE05F3F71F04795880F97FB991F61F09F3F17
S1130AF079F087950895121613061406551FF2CF40
S1130B004695F1DF08C0161617061806991FF1CF8F
S1130B1086957105610508940895E894BB276627B6
S1130B207727CB0197F908950E94A7050C945A05DD
S1130B300E944C0538F00E94530520F0952311F0D3
S1130B400C9443050C94490511240C948E050E94C1
S1130B506B0570F3959FC1F3950F50E0551F629F8D
S1130B60F001729FBB27F00DB11D639FAA27F00D02
S1130B70B11DAA1F649F6627B00DA11D661F829F29
S1130B802227B00DA11D621F739FB00DA11D621F0E
S1130B90839FA00D611D221F749F3327A00D611D2B
S1130BA0231F849F600D211D822F762F6A2F11240D
S1130BB09F5750409AF0F1F088234AF0EE0FFF1F40
S1130BC0BB1F661F771F881F91505040A9F79E3F97
S1130BD0510580F00C9443050C948E055F3FE4F3BB
S1130BE0983ED4F3869577956795B795F795E795ED
S1130BF09F5FC1F7FE2B880F911D9695879597F9F6
S1130C0008950E947305E8F09E37E8F09639B8F429
S1130C109E3848F4672F782F8827985FF9CF8695F8
S1130C207795679593959539D0F3B62FB1706B0F7F
S1130C30711D811D20F487957795679593950C9484
S1130C4025060C9440060C948E05882371F47723B2
S1130C5021F09850872B762F07C0662311F499272B
S1130C600DC09051862B70E060E02AF09A95660FD3
S1130C70771F881FDAF7880F9695879597F9089557
S1130C809F3F31F0915020F4879577956795B795FC
S1130C90880F911D9695879597F90895F894FFCF3D
S1050CA0FF5AF5
S9030000FC
